{"abi":[{"type":"constructor","inputs":[{"name":"uniPool","type":"address","internalType":"address"},{"name":"_vault","type":"address","internalType":"address"},{"name":"_rebalancer","type":"address","internalType":"address"},{"name":"_feeRecipient","type":"address","internalType":"address"}],"stateMutability":"nonpayable"},{"type":"function","name":"addVestingPosition","inputs":[{"name":"amount0","type":"uint256","internalType":"uint256"},{"name":"amount1","type":"uint256","internalType":"uint256"},{"name":"_vestDuration","type":"uint256","internalType":"uint256"}],"outputs":[],"stateMutability":"nonpayable"},{"type":"function","name":"balances","inputs":[],"outputs":[{"name":"amount0","type":"uint256","internalType":"uint256"},{"name":"amount1","type":"uint256","internalType":"uint256"}],"stateMutability":"view"},{"type":"function","name":"changeFeeRecipient","inputs":[{"name":"_newRecipient","type":"address","internalType":"address"}],"outputs":[],"stateMutability":"nonpayable"},{"type":"function","name":"changePositionWidth","inputs":[{"name":"_newWidth","type":"uint24","internalType":"uint24"}],"outputs":[],"stateMutability":"nonpayable"},{"type":"function","name":"changeRebalancer","inputs":[{"name":"newRebalancer","type":"address","internalType":"address"}],"outputs":[],"stateMutability":"nonpayable"},{"type":"function","name":"checkPoolActivity","inputs":[],"outputs":[{"name":"","type":"bool","internalType":"bool"}],"stateMutability":"view"},{"type":"function","name":"collectFees","inputs":[],"outputs":[],"stateMutability":"nonpayable"},{"type":"function","name":"compound","inputs":[],"outputs":[],"stateMutability":"nonpayable"},{"type":"function","name":"feeRecipient","inputs":[],"outputs":[{"name":"","type":"address","internalType":"address"}],"stateMutability":"view"},{"type":"function","name":"getMainPosition","inputs":[],"outputs":[{"name":"","type":"tuple","internalType":"struct IStrategy.Position","components":[{"name":"tickLower","type":"int24","internalType":"int24"},{"name":"tickUpper","type":"int24","internalType":"int24"},{"name":"liquidity","type":"uint128","internalType":"uint128"}]}],"stateMutability":"view"},{"type":"function","name":"getSecondaryPosition","inputs":[],"outputs":[{"name":"","type":"tuple","internalType":"struct IStrategy.Position","components":[{"name":"tickLower","type":"int24","internalType":"int24"},{"name":"tickUpper","type":"int24","internalType":"int24"},{"name":"liquidity","type":"uint128","internalType":"uint128"}]}],"stateMutability":"view"},{"type":"function","name":"getVestingPosition","inputs":[],"outputs":[{"name":"","type":"tuple","internalType":"struct IStrategy.VestingPosition","components":[{"name":"tickLower","type":"int24","internalType":"int24"},{"name":"tickUpper","type":"int24","internalType":"int24"},{"name":"initialLiquidity","type":"uint128","internalType":"uint128"},{"name":"remainingLiquidity","type":"uint128","internalType":"uint128"},{"name":"startTs","type":"uint256","internalType":"uint256"},{"name":"endTs","type":"uint256","internalType":"uint256"},{"name":"lastUpdate","type":"uint256","internalType":"uint256"}]}],"stateMutability":"view"},{"type":"function","name":"idleBalances","inputs":[],"outputs":[{"name":"amount0","type":"uint256","internalType":"uint256"},{"name":"amount1","type":"uint256","internalType":"uint256"}],"stateMutability":"view"},{"type":"function","name":"lastRebalance","inputs":[],"outputs":[{"name":"","type":"uint256","internalType":"uint256"}],"stateMutability":"view"},{"type":"function","name":"mainPosition","inputs":[],"outputs":[{"name":"tickLower","type":"int24","internalType":"int24"},{"name":"tickUpper","type":"int24","internalType":"int24"},{"name":"liquidity","type":"uint128","internalType":"uint128"}],"stateMutability":"view"},{"type":"function","name":"maxObservationDeviation","inputs":[],"outputs":[{"name":"","type":"int24","internalType":"int24"}],"stateMutability":"view"},{"type":"function","name":"ongoingVestingPosition","inputs":[],"outputs":[{"name":"","type":"bool","internalType":"bool"}],"stateMutability":"view"},{"type":"function","name":"owner","inputs":[],"outputs":[{"name":"","type":"address","internalType":"address"}],"stateMutability":"view"},{"type":"function","name":"pool","inputs":[],"outputs":[{"name":"","type":"address","internalType":"address"}],"stateMutability":"view"},{"type":"function","name":"positionWidth","inputs":[],"outputs":[{"name":"","type":"uint24","internalType":"uint24"}],"stateMutability":"view"},{"type":"function","name":"price","inputs":[],"outputs":[{"name":"_price","type":"uint256","internalType":"uint256"}],"stateMutability":"view"},{"type":"function","name":"protocolFee","inputs":[],"outputs":[{"name":"","type":"uint256","internalType":"uint256"}],"stateMutability":"view"},{"type":"function","name":"rebalance","inputs":[],"outputs":[],"stateMutability":"nonpayable"},{"type":"function","name":"rebalanceInterval","inputs":[],"outputs":[{"name":"","type":"uint256","internalType":"uint256"}],"stateMutability":"view"},{"type":"function","name":"rebalancer","inputs":[],"outputs":[{"name":"","type":"address","internalType":"address"}],"stateMutability":"view"},{"type":"function","name":"renounceOwnership","inputs":[],"outputs":[],"stateMutability":"nonpayable"},{"type":"function","name":"secondaryPosition","inputs":[],"outputs":[{"name":"tickLower","type":"int24","internalType":"int24"},{"name":"tickUpper","type":"int24","internalType":"int24"},{"name":"liquidity","type":"uint128","internalType":"uint128"}],"stateMutability":"view"},{"type":"function","name":"setMaxObservationDeviation","inputs":[{"name":"_maxObservationDeviation","type":"uint24","internalType":"uint24"}],"outputs":[],"stateMutability":"nonpayable"},{"type":"function","name":"setProtocolFee","inputs":[{"name":"_protocolFee","type":"uint256","internalType":"uint256"}],"outputs":[],"stateMutability":"nonpayable"},{"type":"function","name":"setRebalanceInterval","inputs":[{"name":"_rebalanceInterval","type":"uint256","internalType":"uint256"}],"outputs":[],"stateMutability":"nonpayable"},{"type":"function","name":"setTickTwapDeviation","inputs":[{"name":"_tickTwapDeviation","type":"uint24","internalType":"uint24"}],"outputs":[],"stateMutability":"nonpayable"},{"type":"function","name":"setTwap","inputs":[{"name":"_twap","type":"uint32","internalType":"uint32"}],"outputs":[],"stateMutability":"nonpayable"},{"type":"function","name":"tickSpacing","inputs":[],"outputs":[{"name":"","type":"int24","internalType":"int24"}],"stateMutability":"view"},{"type":"function","name":"tickTwapDeviation","inputs":[],"outputs":[{"name":"","type":"int24","internalType":"int24"}],"stateMutability":"view"},{"type":"function","name":"token0","inputs":[],"outputs":[{"name":"","type":"address","internalType":"address"}],"stateMutability":"view"},{"type":"function","name":"token1","inputs":[],"outputs":[{"name":"","type":"address","internalType":"address"}],"stateMutability":"view"},{"type":"function","name":"transferOwnership","inputs":[{"name":"newOwner","type":"address","internalType":"address"}],"outputs":[],"stateMutability":"nonpayable"},{"type":"function","name":"twap","inputs":[],"outputs":[{"name":"","type":"uint32","internalType":"uint32"}],"stateMutability":"view"},{"type":"function","name":"twapPrice","inputs":[],"outputs":[{"name":"","type":"uint256","internalType":"uint256"}],"stateMutability":"view"},{"type":"function","name":"twapTick","inputs":[],"outputs":[{"name":"","type":"int24","internalType":"int24"}],"stateMutability":"view"},{"type":"function","name":"uniswapV3MintCallback","inputs":[{"name":"amount0","type":"uint256","internalType":"uint256"},{"name":"amount1","type":"uint256","internalType":"uint256"},{"name":"","type":"bytes","internalType":"bytes"}],"outputs":[],"stateMutability":"nonpayable"},{"type":"function","name":"vault","inputs":[],"outputs":[{"name":"","type":"address","internalType":"address"}],"stateMutability":"view"},{"type":"function","name":"vestPosition","inputs":[],"outputs":[{"name":"tickLower","type":"int24","internalType":"int24"},{"name":"tickUpper","type":"int24","internalType":"int24"},{"name":"initialLiquidity","type":"uint128","internalType":"uint128"},{"name":"remainingLiquidity","type":"uint128","internalType":"uint128"},{"name":"startTs","type":"uint256","internalType":"uint256"},{"name":"endTs","type":"uint256","internalType":"uint256"},{"name":"lastUpdate","type":"uint256","internalType":"uint256"}],"stateMutability":"view"},{"type":"function","name":"withdrawPartial","inputs":[{"name":"shares","type":"uint256","internalType":"uint256"},{"name":"totalSupply","type":"uint256","internalType":"uint256"}],"outputs":[{"name":"amount0Out","type":"uint256","internalType":"uint256"},{"name":"amount1Out","type":"uint256","internalType":"uint256"}],"stateMutability":"nonpayable"},{"type":"event","name":"NewMainTicks","inputs":[{"name":"","type":"int24","indexed":false,"internalType":"int24"},{"name":"","type":"int24","indexed":false,"internalType":"int24"}],"anonymous":false},{"type":"event","name":"NewSecondaryTicks","inputs":[{"name":"","type":"int24","indexed":false,"internalType":"int24"},{"name":"","type":"int24","indexed":false,"internalType":"int24"}],"anonymous":false},{"type":"event","name":"OwnershipTransferred","inputs":[{"name":"previousOwner","type":"address","indexed":true,"internalType":"address"},{"name":"newOwner","type":"address","indexed":true,"internalType":"address"}],"anonymous":false},{"type":"error","name":"OwnableInvalidOwner","inputs":[{"name":"owner","type":"address","internalType":"address"}]},{"type":"error","name":"OwnableUnauthorizedAccount","inputs":[{"name":"account","type":"address","internalType":"address"}]},{"type":"error","name":"SafeERC20FailedOperation","inputs":[{"name":"token","type":"address","internalType":"address"}]}],"bytecode":{"object":"0x60806040523480156200001157600080fd5b5060405162004ab038038062004ab0833981016040819052620000349162000add565b33806200005c57604051631e4fbdf760e01b8152600060048201526024015b60405180910390fd5b6200006781620003aa565b50836001600160a01b0316630dfe16816040518163ffffffff1660e01b8152600401602060405180830381865afa158015620000a7573d6000803e3d6000fd5b505050506040513d601f19601f82011682018060405250810190620000cd919062000b45565b600b60006101000a8154816001600160a01b0302191690836001600160a01b03160217905550836001600160a01b031663d21220a76040518163ffffffff1660e01b8152600401602060405180830381865afa15801562000132573d6000803e3d6000fd5b505050506040513d601f19601f8201168201806040525081019062000158919062000b45565b600c80546001600160a01b03199081166001600160a01b0393841617909155600d8054821687841617905560018054909116858316179055600b54620001a3911684600019620003fa565b600c54620001be906001600160a01b031684600019620003fa565b600380546001600160a01b0319166001600160a01b0384811691909117909155600d54604080516334324e9f60e21b81529051919092169163d0c93a7c9160048083019260209291908290030181865afa15801562000221573d6000803e3d6000fd5b505050506040513d601f19601f8201168201806040525081019062000247919062000b7d565b6001805466ffffffffffffff60a01b1916600160c01b62ffffff93909316830263ffffffff60a01b191617604b60a21b1762ffffff60d81b1916601960db1b17908190556200029d91900460020b600462000bb1565b6002805462ffffff9290921663010000000265ffffff00000019909216919091179055600d5460408051633850c7bd60e01b815290516000926001600160a01b031691633850c7bd9160048083019260e09291908290030181865afa1580156200030b573d6000803e3d6000fd5b505050506040513d601f19601f8201168201806040525081019062000331919062000bee565b50505050509150506200034a81620004c660201b60201c565b620003558162000639565b5042600f55610168600e556002805462ffffff196001600160a01b039093166601000000000000029290921665ffffff000001600160d01b031990921691909117606417905550506103846010555062000ee1565b600080546001600160a01b038381166001600160a01b0319831681178455604051919092169283917f8be0079c531659141344cd1fd0a4f28419497f9722a3daafe3b4186f6b6457e09190a35050565b604080516001600160a01b038416602482015260448082018490528251808303909101815260649091019091526020810180516001600160e01b0390811663095ea7b360e01b179091526200045490859083906200087916565b620004c057604080516001600160a01b038516602482015260006044808301919091528251808303909101815260649091019091526020810180516001600160e01b0390811663095ea7b360e01b17909152620004b4918691620008cd16565b620004c08482620008cd565b50505050565b60028054600091620004e4916301000000900462ffffff1662000cae565b6001549091506000906200050390600160c01b900460020b8462000cd3565b905060008160020b12156200052e576001546200052b90600160c01b900460020b8262000cf8565b90505b6001546000906200054b90600290600160c01b9004810b62000d20565b60020b8260020b1290506000828562000565919062000d60565b90508162000589576001546200058690600160c01b900460020b8262000cf8565b90505b62000595848262000d60565b6004805462ffffff191662ffffff92909216919091179055620005b9848262000cf8565b6004805462ffffff9290921663010000000265ffffff000000199092169190911790557f11d5b6245062e3f1e010cf2f037a1483a027f44226160d98901987d14f66d10462000609858362000d60565b62000615868462000cf8565b60408051600293840b81529190920b60208201520160405180910390a15050505050565b6001546000906200065590600160c01b900460020b8362000cd3565b600b546040516370a0823160e01b81523060048201529192506000916001600160a01b03909116906370a0823190602401602060405180830381865afa158015620006a4573d6000803e3d6000fd5b505050506040513d601f19601f82011682018060405250810190620006ca919062000d88565b600c546040516370a0823160e01b81523060048201529192506000916001600160a01b03909116906370a0823190602401602060405180830381865afa15801562000719573d6000803e3d6000fd5b505050506040513d601f19601f820116820180604052508101906200073f919062000d88565b905060006200074d62000943565b905060006c0c9f2c9cd04674edea400000006200076b838662000da2565b62000777919062000dbc565b905082811015620007d1576004546005805462ffffff191662ffffff909216919091179055620007a8858762000d60565b6005805462ffffff9290921663010000000265ffffff0000001990921691909117905562000828565b600154600160c01b900460020b620007ea868862000d60565b620007f6919062000cf8565b6005805460045463010000009081900462ffffff90811690910265ffffffffffff199092169316929092179190911790555b60055460408051600283810b8252630100000090930490920b60208301527febdfb5cedccec26941157f8c06ee147bad23a90d2e9f49a9be310ecd0579c8e6910160405180910390a1505050505050565b6000806000806020600086516020880160008a5af192503d91506000519050828015620008c157508115620008b25780600114620008c1565b6000866001600160a01b03163b115b93505050505b92915050565b600080602060008451602086016000885af180620008f1576040513d6000823e3d81fd5b50506000513d915081156200090b57806001141562000918565b6001600160a01b0384163b155b15620004c057604051635274afe760e01b81526001600160a01b038516600482015260240162000053565b600080600d60009054906101000a90046001600160a01b03166001600160a01b0316633850c7bd6040518163ffffffff1660e01b815260040160e060405180830381865afa1580156200099a573d6000803e3d6000fd5b505050506040513d601f19601f82011682018060405250810190620009c0919062000bee565b50505050505090506002620009fa826001600160a01b031666038d7ea4c680006c0100000000000000000000000062000a0c60201b60201c565b62000a06919062000ed0565b91505090565b600080806000198587098587029250828110838203039150508060000362000a48576000841162000a3c57600080fd5b50829004905062000abd565b80841162000a5557600080fd5b600084868809851960019081018716968790049682860381900495909211909303600082900391909104909201919091029190911760038402600290811880860282030280860282030280860282030280860282030280860282030280860290910302029150505b9392505050565b6001600160a01b038116811462000ada57600080fd5b50565b6000806000806080858703121562000af457600080fd5b845162000b018162000ac4565b602086015190945062000b148162000ac4565b604086015190935062000b278162000ac4565b606086015190925062000b3a8162000ac4565b939692955090935050565b60006020828403121562000b5857600080fd5b815162000abd8162000ac4565b8051600281900b811462000b7857600080fd5b919050565b60006020828403121562000b9057600080fd5b62000abd8262000b65565b634e487b7160e01b600052601160045260246000fd5b60008260020b8260020b028060020b915080821462000bd45762000bd462000b9b565b5092915050565b805161ffff8116811462000b7857600080fd5b600080600080600080600060e0888a03121562000c0a57600080fd5b875162000c178162000ac4565b965062000c276020890162000b65565b955062000c376040890162000bdb565b945062000c476060890162000bdb565b935062000c576080890162000bdb565b925060a088015163ffffffff8116811462000c7157600080fd5b60c0890151909250801515811462000c8857600080fd5b8091505092959891949750929550565b634e487b7160e01b600052601260045260246000fd5b600062ffffff8084168062000cc75762000cc762000c98565b92169190910492915050565b60008260020b8062000ce95762000ce962000c98565b808360020b0791505092915050565b600281810b9083900b01627fffff8113627fffff1982121715620008c757620008c762000b9b565b60008160020b8360020b8062000d3a5762000d3a62000c98565b627fffff1982146000198214161562000d575762000d5762000b9b565b90059392505050565b600282810b9082900b03627fffff198112627fffff82131715620008c757620008c762000b9b565b60006020828403121562000d9b57600080fd5b5051919050565b8082028115828204841417620008c757620008c762000b9b565b60008262000dce5762000dce62000c98565b500490565b600181815b8085111562000e1457816000190482111562000df85762000df862000b9b565b8085161562000e0657918102915b93841c939080029062000dd8565b509250929050565b60008262000e2d57506001620008c7565b8162000e3c57506000620008c7565b816001811462000e55576002811462000e605762000e80565b6001915050620008c7565b60ff84111562000e745762000e7462000b9b565b50506001821b620008c7565b5060208310610133831016604e8410600b841016171562000ea5575081810a620008c7565b62000eb1838362000dd3565b806000190482111562000ec85762000ec862000b9b565b029392505050565b600062000abd60ff84168362000e1c565b613bbf8062000ef16000396000f3fe608060405234801561001057600080fd5b50600436106102745760003560e01c80638072feb011610151578063b0e21e8a116100c3578063d21220a711610087578063d21220a7146107e6578063d3487997146107f9578063e69b56491461080c578063f2fde38b1461081f578063f69e204614610832578063fbfa77cf1461083a57600080fd5b8063b0e21e8a14610783578063beff053e1461078c578063c8796572146107b7578063c958ff64146107bf578063d0c93a7c146107d257600080fd5b8063a035b1fe11610115578063a035b1fe1461067a578063a20a41cf14610682578063a3da095e1461068a578063a7d8483f146106e1578063aa3ad374146106f4578063ab16fd9f1461077b57600080fd5b80638072feb0146105215780638097e2491461062a5780638da5cb5b146106545780639b70de68146106655780639f7b1ebc1461067257600080fd5b8063463e8b83116101ea57806364e91c7d116101ae57806364e91c7d146104ba57806366c91379146104ce578063715018a6146104f6578063787dce3d146104fe5780637bb98a68146105115780637d7c2a1c1461051957600080fd5b8063463e8b83146103f957806346904840146104115780634d2c89ff1461042b5780635b7dcaed146104885780635dd08bc01461049b57600080fd5b80631208aa181161023c5780631208aa18146102fb57806316d1d9161461032757806316f0115b146103305780632246bc69146103435780632360407114610356578063357a5f821461036957600080fd5b806301d22ccd146102795780630918281b146102a95780630dfe1681146102be578063106b9ca1146102d157806311934ef8146102e8575b600080fd5b60035461028c906001600160a01b031681565b6040516001600160a01b0390911681526020015b60405180910390f35b6102bc6102b73660046131b7565b61084d565b005b600b5461028c906001600160a01b031681565b6102da600f5481565b6040519081526020016102a0565b6102bc6102f63660046131d4565b610877565b60015461031290600160a01b900463ffffffff1681565b60405163ffffffff90911681526020016102a0565b6102da600e5481565b600d5461028c906001600160a01b031681565b6102bc6103513660046131d4565b6108fd565b6102bc6103643660046131b7565b610974565b6103c660408051606081018252600080825260208201819052918101919091525060408051606081018252600454600281810b835263010000008204900b6020830152600160301b90046001600160801b03169181019190915290565b604080518251600290810b825260208085015190910b90820152918101516001600160801b0316908201526060016102a0565b6104016109f7565b60405190151581526020016102a0565b60025461028c90600160301b90046001600160a01b031681565b6103c660408051606081018252600080825260208201819052918101919091525060408051606081018252600554600281810b835263010000008204900b6020830152600160301b90046001600160801b03169181019190915290565b6102bc6104963660046131f9565b610ce1565b600280546104a7910b81565b60405160029190910b81526020016102a0565b6001546104a790600160d81b900460020b81565b6104e16104dc366004613212565b610d4b565b604080519283526020830191909152016102a0565b6102bc610f4b565b6102bc61050c3660046131f9565b610f5f565b6104e1610fd4565b6102bc61113b565b6105bf6040805160e081018252600080825260208201819052918101829052606081018290526080810182905260a0810182905260c0810191909152506040805160e081018252600654600281810b835263010000008204900b60208301526001600160801b03600160301b9091048116928201929092526007549091166060820152600854608082015260095460a0820152600a5460c082015290565b6040516102a09190600060e082019050825160020b8252602083015160020b602083015260408301516001600160801b03808216604085015280606086015116606085015250506080830151608083015260a083015160a083015260c083015160c083015292915050565b600254610640906301000000900462ffffff1681565b60405162ffffff90911681526020016102a0565b6000546001600160a01b031661028c565b6011546104019060ff1681565b6104a76112d4565b6102da611460565b6102da611513565b6005546106b590600281810b916301000000810490910b90600160301b90046001600160801b031683565b60408051600294850b81529290930b60208301526001600160801b0316918101919091526060016102a0565b6102bc6106ef366004613246565b61155f565b600654600754600854600954600a5461073294600281810b956301000000830490910b94600160301b9092046001600160801b039081169491169287565b60408051600298890b81529690970b60208701526001600160801b0394851696860196909652929091166060840152608083015260a082015260c081019190915260e0016102a0565b6104e16115ee565b6102da60105481565b6004546106b590600281810b916301000000810490910b90600160301b90046001600160801b031683565b6102bc6116d2565b6102bc6107cd3660046131d4565b611845565b6001546104a790600160c01b900460020b81565b600c5461028c906001600160a01b031681565b6102bc6108073660046132aa565b6118f8565b6102bc61081a366004613352565b611995565b6102bc61082d3660046131b7565b611cb3565b6102bc611cee565b60015461028c906001600160a01b031681565b610855611e03565b600380546001600160a01b0319166001600160a01b0392909216919091179055565b61087f611e03565b60018162ffffff16116108d95760405162461bcd60e51b815260206004820152601d60248201527f6e657720646576696174696f6e206d7573742062652061626f7665203100000060448201526064015b60405180910390fd5b6001805462ffffff909216600160d81b0262ffffff60d81b19909216919091179055565b610905611e03565b60018162ffffff161161095a5760405162461bcd60e51b815260206004820152601d60248201527f6e657720646576696174696f6e206d7573742062652061626f7665203100000060448201526064016108d0565b6002805462ffffff191662ffffff92909216919091179055565b61097c611e03565b6001600160a01b0381166109c85760405162461bcd60e51b815260206004820152601360248201527263616e2774206265206164647265737328302960681b60448201526064016108d0565b600280546001600160a01b03909216600160301b026601000000000000600160d01b0319909216919091179055565b600080600080600d60009054906101000a90046001600160a01b03166001600160a01b0316633850c7bd6040518163ffffffff1660e01b815260040160e060405180830381865afa158015610a50573d6000803e3d6000fd5b505050506040513d601f19601f82011682018060405250810190610a7491906133a0565b505050935093509350506000600160149054906101000a900463ffffffff1642610a9e919061344a565b600d5460405163252c09d760e01b815261ffff8616600482015291925060009182916001600160a01b03169063252c09d790602401608060405180830381865afa158015610af0573d6000803e3d6000fd5b505050506040513d601f19601f82011682018060405250810190610b149190613480565b50919350915086905060015b8561ffff168161ffff1611610cd25760008682610b3d8a836134d8565b610b4791906134f3565b610b519190613524565b600d5460405163252c09d760e01b815261ffff9290921660048301819052925060009182916001600160a01b03169063252c09d790602401608060405180830381865afa158015610ba6573d6000803e3d6000fd5b505050506040513d601f19601f82011682018060405250810190610bca9190613480565b5050915091508163ffffffff16600003610c145760405162461bcd60e51b815260206004820152600b60248201526a074696d657374616d7020360ac1b60448201526064016108d0565b610c1e828861344a565b63ffffffff16610c2e8288613545565b610c389190613578565b9a50909550935084846000610c4d8c876135b6565b6002805491925090810b9082900b1380610c79575060028054610c70910b6135db565b60020b8160020b125b15610c915760009c5050505050505050505050505090565b8863ffffffff168363ffffffff161015610cb85760019c5050505050505050505050505090565b8b9550505050508080610cca906135fd565b915050610b20565b50600097505050505050505090565b610ce9611e03565b601e81118015610cfa5750611c2081105b610d465760405162461bcd60e51b815260206004820152601e60248201527f6e657720696e74657276616c206e6f742077697468696e20626f756e6473000060448201526064016108d0565b600e55565b60015460009081906001600160a01b03163314610da35760405162461bcd60e51b81526020600482015260166024820152751bdb9b1e4818d85b1b18589b1948189e4815985d5b1d60521b60448201526064016108d0565b600080610dae6115ee565b60045491935091506000908690610dd6908990600160301b90046001600160801b031661361e565b610de09190613635565b6004549091506000908190610e05908490600281810b9163010000009004900b611e30565b600480549294509092508491600690610e2f908490600160301b90046001600160801b0316613649565b82546101009290920a6001600160801b038181021990931691831602179091556005548a9250610e68918c91600160301b90041661361e565b610e729190613635565b6005549093506000908190610e97908690600281810b9163010000009004900b611e30565b600580549294509092508691600690610ec1908490600160301b90046001600160801b0316613649565b92506101000a8154816001600160801b0302191690836001600160801b03160217905550898b88610ef2919061361e565b610efc9190613635565b610f068386613669565b610f109190613669565b985089610f1d8c8861361e565b610f279190613635565b610f318285613669565b610f3b9190613669565b9750505050505050509250929050565b610f53611e03565b610f5d6000611f5a565b565b610f67611e03565b6105dc811115610fc75760405162461bcd60e51b815260206004820152602560248201527f70726f746f636f6c206665652063616e277420626520686967686572207468616044820152646e2031352560d81b60648201526084016108d0565b610fcf6116d2565b601055565b6000806000600d60009054906101000a90046001600160a01b03166001600160a01b0316633850c7bd6040518163ffffffff1660e01b815260040160e060405180830381865afa15801561102c573d6000803e3d6000fd5b505050506040513d601f19601f8201168201806040525081019061105091906133a0565b50505050505090506000806110636115ee565b600454919350915060009081906110b09086906110829060020b611faa565b600454611098906301000000900460020b611faa565b600454600160301b90046001600160801b03166122e0565b600554919350915060009081906110fd9088906110cf9060020b611faa565b6005546110e5906301000000900460020b611faa565b600554600160301b90046001600160801b03166122e0565b90925090508161110d8588613669565b6111179190613669565b9850806111248487613669565b61112e9190613669565b9750505050505050509091565b6003546001600160a01b031633146111955760405162461bcd60e51b815260206004820152601b60248201527f6f6e6c792063616c6c61626c6520627920726562616c616e636572000000000060448201526064016108d0565b600e54600f546111a5904261367c565b10156111f35760405162461bcd60e51b815260206004820152601d60248201527f746f6f20736f6f6e2073696e6365206c61737420726562616c616e636500000060448201526064016108d0565b6111fb61237c565b6112036116d2565b61120b6123c5565b6000806112166115ee565b91509150600080600d60009054906101000a90046001600160a01b03166001600160a01b0316633850c7bd6040518163ffffffff1660e01b815260040160e060405180830381865afa158015611270573d6000803e3d6000fd5b505050506040513d601f19601f8201168201806040525081019061129491906133a0565b5050505050915091506112a681612442565b6112b182858561259f565b90945092506112bf816126f1565b6112ca82858561291b565b505042600f555050565b60408051600280825260608201835260009283929190602083019080368337019050509050600160149054906101000a900463ffffffff168160008151811061131f5761131f61368f565b63ffffffff90921660209283029190910190910152600d5460405163883bdbfd60e01b81526000916001600160a01b03169063883bdbfd906113659085906004016136a5565b600060405180830381865afa158015611382573d6000803e3d6000fd5b505050506040513d6000823e601f3d908101601f191682016040526113aa919081019061378b565b5090506000816000815181106113c2576113c261368f565b6020026020010151826001815181106113dd576113dd61368f565b60200260200101516113ef9190613545565b60015490915060009061141290600160a01b900463ffffffff1660030b83613578565b905060008260060b128015611445575060015461143f90600160a01b900463ffffffff1660030b8361384e565b60060b15155b15611458578061145481613870565b9150505b949350505050565b600080600d60009054906101000a90046001600160a01b03166001600160a01b0316633850c7bd6040518163ffffffff1660e01b815260040160e060405180830381865afa1580156114b6573d6000803e3d6000fd5b505050506040513d601f19601f820116820180604052508101906114da91906133a0565b50505050505090506002611503826001600160a01b031666038d7ea4c68000600160601b612a29565b61150d9190613977565b91505090565b60008061151e6112d4565b9050600061152b82611faa565b9050600261154e826001600160a01b031666038d7ea4c68000600160601b612a29565b6115589190613977565b9250505090565b611567611e03565b601e8163ffffffff16116115c85760405162461bcd60e51b815260206004820152602260248201527f747761702068617320746f206265206174206c65617374203330207365636f6e604482015261647360f01b60648201526084016108d0565b6001805463ffffffff909216600160a01b0263ffffffff60a01b19909216919091179055565b600b546040516370a0823160e01b815230600482015260009182916001600160a01b03909116906370a0823190602401602060405180830381865afa15801561163b573d6000803e3d6000fd5b505050506040513d601f19601f8201168201806040525081019061165f9190613986565b600c546040516370a0823160e01b81523060048201529193506001600160a01b0316906370a0823190602401602060405180830381865afa1580156116a8573d6000803e3d6000fd5b505050506040513d601f19601f820116820180604052508101906116cc9190613986565b90509091565b6000806116dd6115ee565b6004549193509150600160301b90046001600160801b0316156117155760045461171590600281810b9163010000009004900b612add565b600554600160301b90046001600160801b0316156117485760055461174890600281810b9163010000009004900b612add565b60115460ff16156117715760065460045461177191600290810b9163010000009004900b612add565b60008061177c6115ee565b9150915060006127106010548685611794919061367c565b61179e919061361e565b6117a89190613635565b9050600061271060105486856117be919061367c565b6117c8919061361e565b6117d29190613635565b905081156117ff57600254600b546117ff916001600160a01b0391821691600160301b9091041684612be6565b801561182a57600254600c5461182a916001600160a01b0391821691600160301b9091041683612be6565b60115460ff161561183d5761183d612c38565b505050505050565b600154600160c01b9004600290810b9061185f908361399f565b61186991906139c1565b62ffffff16156118d15760405162461bcd60e51b815260206004820152602d60248201527f68616c662077696474682073686f756c6420626520646976697369626c65206260448201526c79207469636b53706163696e6760981b60648201526084016108d0565b6002805465ffffff0000001916630100000062ffffff8416021790556118f561113b565b50565b600d546001600160a01b0316331461194a5760405162461bcd60e51b81526020600482015260156024820152741bdb9b1e4818d85b1b18589b1948189e481c1bdbdb605a1b60448201526064016108d0565b821561196d57600d54600b5461196d916001600160a01b03918216911685612be6565b811561199057600d54600c54611990916001600160a01b03918216911684612be6565b505050565b6001546001600160a01b031633146119e85760405162461bcd60e51b81526020600482015260166024820152751bdb9b1e4818d85b1b18589b1948189e4815985d5b1d60521b60448201526064016108d0565b6119f06116d2565b60115460ff1615611a575760405162461bcd60e51b815260206004820152602b60248201527f7468657265277320612063757272656e746c79206f6e676f696e67205665737460448201526a34b733a837b9b4ba34b7b760a91b60648201526084016108d0565b611a5f61237c565b6040805160e080820183526000828401819052606083018190526080830181905260a0830181905260c0830181905260048054600281810b86526301000000909104900b6020850152600d548551633850c7bd60e01b81529551949592946001600160a01b0390911693633850c7bd9380840193919291908290030181865afa158015611af0573d6000803e3d6000fd5b505050506040513d601f19601f82011682018060405250810190611b1491906133a0565b50505050505090506000611b4382611b2f8560000151611faa565b611b3c8660200151611faa565b8989612df1565b6001600160801b038116604085810182905260608601829052600d54865160208801519251633c8a7d8d60e01b8152306004820152600291820b602482015292900b6044830152606482019290925260a06084820152600060a48201529192506001600160a01b031690633c8a7d8d9060c40160408051808303816000875af1158015611bd4573d6000803e3d6000fd5b505050506040513d601f19601f82011682018060405250810190611bf891906139d7565b5050426080840181905260c084018190526011805460ff19166001179055611c21908590613669565b60a084018190528351600680546020870151604088015162ffffff94851665ffffffffffff19909316929092176301000000949091169390930292909217600160301b600160b01b031916600160301b6001600160801b03938416021790556060850151600780546001600160801b031916919092161790556080840151600855600955505060c00151600a55505050565b611cbb611e03565b6001600160a01b038116611ce557604051631e4fbdf760e01b8152600060048201526024016108d0565b6118f581611f5a565b6003546001600160a01b03163314611d485760405162461bcd60e51b815260206004820152601b60248201527f6f6e6c792063616c6c61626c6520627920726562616c616e636572000000000060448201526064016108d0565b611d5061237c565b611d586116d2565b600080611d636115ee565b915091506000600d60009054906101000a90046001600160a01b03166001600160a01b0316633850c7bd6040518163ffffffff1660e01b815260040160e060405180830381865afa158015611dbc573d6000803e3d6000fd5b505050506040513d601f19601f82011682018060405250810190611de091906133a0565b5050505050509050611df381848461259f565b909350915061199081848461291b565b6000546001600160a01b03163314610f5d5760405163118cdaa760e01b81523360048201526024016108d0565b6000806001600160801b03851615611f5257600d5460405163a34123a760e01b8152600286810b600483015285900b60248201526001600160801b03871660448201526001600160a01b039091169063a34123a79060640160408051808303816000875af1158015611ea6573d6000803e3d6000fd5b505050506040513d601f19601f82011682018060405250810190611eca91906139d7565b600d546040516309e3d67b60e31b81529294509092506001600160a01b031690634f1eb3d890611f0d903090889088906001600160801b039081906004016139fb565b60408051808303816000875af1158015611f2b573d6000803e3d6000fd5b505050506040513d601f19601f82011682018060405250810190611f4f9190613a4f565b50505b935093915050565b600080546001600160a01b038381166001600160a01b0319831681178455604051919092169283917f8be0079c531659141344cd1fd0a4f28419497f9722a3daafe3b4186f6b6457e09190a35050565b60008060008360020b12611fc1578260020b611fc9565b8260020b6000035b9050620d89e88111156120025760405162461bcd60e51b81526020600482015260016024820152601560fa1b60448201526064016108d0565b60008160011660000361201957600160801b61202b565b6ffffcb933bd6fad37aa2d162d1a5940015b70ffffffffffffffffffffffffffffffffff169050600282161561205f576ffff97272373d413259a46990580e213a0260801c5b600482161561207e576ffff2e50f5f656932ef12357cf3c7fdcc0260801c5b600882161561209d576fffe5caca7e10e4e61c3624eaa0941cd00260801c5b60108216156120bc576fffcb9843d60f6159c9db58835c9266440260801c5b60208216156120db576fff973b41fa98c081472e6896dfb254c00260801c5b60408216156120fa576fff2ea16466c96a3843ec78b326b528610260801c5b6080821615612119576ffe5dee046a99a2a811c461f1969c30530260801c5b610100821615612139576ffcbe86c7900a88aedcffc83b479aa3a40260801c5b610200821615612159576ff987a7253ac413176f2b074cf7815e540260801c5b610400821615612179576ff3392b0822b70005940c7a398e4b70f30260801c5b610800821615612199576fe7159475a2c29b7443b29c7fa6e889d90260801c5b6110008216156121b9576fd097f3bdfd2022b8845ad8f792aa58250260801c5b6120008216156121d9576fa9f746462d870fdf8a65dc1f90e061e50260801c5b6140008216156121f9576f70d869a156d2a1b890bb3df62baf32f70260801c5b618000821615612219576f31be135f97d08fd981231505542fcfa60260801c5b6201000082161561223a576f09aa508b5b7a84e1c677de54f3e99bc90260801c5b6202000082161561225a576e5d6af8dedb81196699c329225ee6040260801c5b62040000821615612279576d2216e584f5fa1ea926041bedfe980260801c5b62080000821615612296576b048a170391f7dc42444e8fa20260801c5b60008460020b13156122b75780600019816122b3576122b361350e565b0490505b6401000000008106156122cb5760016122ce565b60005b60ff16602082901c0192505050919050565b600080836001600160a01b0316856001600160a01b03161115612301579293925b846001600160a01b0316866001600160a01b03161161232c57612325858585612eb5565b9150612373565b836001600160a01b0316866001600160a01b0316101561236557612351868585612eb5565b915061235e858785612f28565b9050612373565b612370858585612f28565b90505b94509492505050565b612384612f72565b610f5d5760405162461bcd60e51b81526020600482015260126024820152717072696365206f7574206f662072616e676560701b60448201526064016108d0565b6004546123f1906001600160801b03600160301b82041690600281810b9163010000009004900b611e30565b505060055461241f906001600160801b03600160301b82041690600281810b9163010000009004900b611e30565b505060048054600160301b600160b01b0319908116909155600580549091169055565b6002805460009161245e916301000000900462ffffff1661399f565b60015490915060009061247b90600160c01b900460020b84613a82565b905060008160020b12156124a3576001546124a090600160c01b900460020b82613aa4565b90505b6001546000906124be90600290600160c01b9004810b613ac9565b60020b8260020b129050600082856124d691906135b6565b9050816124f7576001546124f490600160c01b900460020b82613aa4565b90505b61250184826135b6565b6004805462ffffff191662ffffff929092169190911790556125238482613aa4565b6004805462ffffff9290921663010000000265ffffff000000199092169190911790557f11d5b6245062e3f1e010cf2f037a1483a027f44226160d98901987d14f66d10461257185836135b6565b61257b8684613aa4565b60408051600293840b81529190920b60208201520160405180910390a15050505050565b6004546000908190600281810b9163010000009004900b826125d4886125c485611faa565b6125cd85611faa565b8a8a612df1565b9050806001600160801b03166000036125f557868694509450505050611f52565b600d54604051633c8a7d8d60e01b815260009182916001600160a01b0390911690633c8a7d8d90612630903090899089908990600401613afa565b60408051808303816000875af115801561264e573d6000803e3d6000fd5b505050506040513d601f19601f8201168201806040525081019061267291906139d7565b90925090506000612683838b61367c565b90506000612691838b61367c565b6004805491925086916006906126b8908490600160301b90046001600160801b0316613b49565b92506101000a8154816001600160801b0302191690836001600160801b0316021790555081819850985050505050505050935093915050565b60015460009061270b90600160c01b900460020b83613a82565b600b546040516370a0823160e01b81523060048201529192506000916001600160a01b03909116906370a0823190602401602060405180830381865afa158015612759573d6000803e3d6000fd5b505050506040513d601f19601f8201168201806040525081019061277d9190613986565b600c546040516370a0823160e01b81523060048201529192506000916001600160a01b03909116906370a0823190602401602060405180830381865afa1580156127cb573d6000803e3d6000fd5b505050506040513d601f19601f820116820180604052508101906127ef9190613986565b905060006127fb611460565b905060006c0c9f2c9cd04674edea40000000612817838661361e565b6128219190613635565b905082811015612877576004546005805462ffffff191662ffffff90921691909117905561284f85876135b6565b6005805462ffffff9290921663010000000265ffffff000000199092169190911790556128ca565b600154600160c01b900460020b61288e86886135b6565b6128989190613aa4565b6005805460045463010000009081900462ffffff90811690910265ffffffffffff199092169316929092179190911790555b60055460408051600283810b8252630100000090930490920b60208301527febdfb5cedccec26941157f8c06ee147bad23a90d2e9f49a9be310ecd0579c8e6910160405180910390a1505050505050565b600554600281810b9163010000009004900b600061294c8661293c85611faa565b61294585611faa565b8888612df1565b90506001600160801b038116156129d857600d54604051633c8a7d8d60e01b81526001600160a01b0390911690633c8a7d8d90612993903090879087908790600401613afa565b60408051808303816000875af11580156129b1573d6000803e3d6000fd5b505050506040513d601f19601f820116820180604052508101906129d591906139d7565b50505b600580548291906006906129fd908490600160301b90046001600160801b0316613b49565b92506101000a8154816001600160801b0302191690836001600160801b03160217905550505050505050565b6000808060001985870985870292508281108382030391505080600003612a625760008411612a5757600080fd5b508290049050612ad6565b808411612a6e57600080fd5b600084868809851960019081018716968790049682860381900495909211909303600082900391909104909201919091029190911760038402600290811880860282030280860282030280860282030280860282030280860282030280860290910302029150505b9392505050565b600d5460405163a34123a760e01b8152600284810b600483015283900b6024820152600060448201526001600160a01b039091169063a34123a79060640160408051808303816000875af1158015612b39573d6000803e3d6000fd5b505050506040513d601f19601f82011682018060405250810190612b5d91906139d7565b5050600d546040516309e3d67b60e31b81526001600160a01b0390911690634f1eb3d890612b9e903090869086906001600160801b039081906004016139fb565b60408051808303816000875af1158015612bbc573d6000803e3d6000fd5b505050506040513d601f19601f82011682018060405250810190612be09190613a4f565b50505050565b604080516001600160a01b038416602482015260448082018490528251808303909101815260649091019091526020810180516001600160e01b031663a9059cbb60e01b179052611990908490613076565b600a54429003612c4457565b6040805160e081018252600654600281810b835263010000008204900b60208301526001600160801b03600160301b9091048116928201929092526007549091166060820152600854608082015260095460a08201819052600a5460c08301526000904210612cb7578160a00151612cb9565b425b905060008260a001518214612d125782608001518360a00151612cdc919061367c565b60c0840151612ceb908461367c565b84604001516001600160801b0316612d03919061361e565b612d0d9190613635565b612d18565b82606001515b9050612d2d8184600001518560200151611e30565b50508083606001818151612d419190613649565b6001600160801b0390811690915260c08501849052845160068054602088015160408901518516600160301b02600160301b600160b01b031962ffffff92831663010000000265ffffffffffff1990941692909516919091179190911792909216919091179055606085015160078054919092166001600160801b031990911617905550608083015160085560a08301516009819055600a8390558203611990576011805460ff19169055505050565b6000836001600160a01b0316856001600160a01b03161115612e11579293925b846001600160a01b0316866001600160a01b031611612e3c57612e358585856130e7565b9050612eac565b836001600160a01b0316866001600160a01b03161015612e9e576000612e638786866130e7565b90506000612e72878986613151565b9050806001600160801b0316826001600160801b031610612e935780612e95565b815b92505050612eac565b612ea9858584613151565b90505b95945050505050565b6000826001600160a01b0316846001600160a01b03161115612ed5579192915b6001600160a01b038416612f1e6fffffffffffffffffffffffffffffffff60601b606085901b16612f068787613b69565b6001600160a01b0316866001600160a01b0316612a29565b6114589190613635565b6000826001600160a01b0316846001600160a01b03161115612f48579192915b6114586001600160801b038316612f5f8686613b69565b6001600160a01b0316600160601b612a29565b600080612f7d6112d4565b90506000600d60009054906101000a90046001600160a01b03166001600160a01b0316633850c7bd6040518163ffffffff1660e01b815260040160e060405180830381865afa158015612fd4573d6000803e3d6000fd5b505050506040513d601f19601f82011682018060405250810190612ff891906133a0565b505050505091505060006001601b9054906101000a900460020b8361301d91906135b6565b60015490915060009061303a90600160d81b900460020b85613aa4565b90508160020b8360020b128061305557508060020b8360020b135b1561306557600094505050505090565b61306d6109f7565b94505050505090565b600080602060008451602086016000885af180613099576040513d6000823e3d81fd5b50506000513d915081156130b15780600114156130be565b6001600160a01b0384163b155b15612be057604051635274afe760e01b81526001600160a01b03851660048201526024016108d0565b6000826001600160a01b0316846001600160a01b03161115613107579192915b600061312a856001600160a01b0316856001600160a01b0316600160601b612a29565b9050612eac61314c848361313e8989613b69565b6001600160a01b0316612a29565b613187565b6000826001600160a01b0316846001600160a01b03161115613171579192915b61145861314c83600160601b61313e8888613b69565b806001600160801b038116811461319d57600080fd5b919050565b6001600160a01b03811681146118f557600080fd5b6000602082840312156131c957600080fd5b8135612ad6816131a2565b6000602082840312156131e657600080fd5b813562ffffff81168114612ad657600080fd5b60006020828403121561320b57600080fd5b5035919050565b6000806040838503121561322557600080fd5b50508035926020909101359150565b63ffffffff811681146118f557600080fd5b60006020828403121561325857600080fd5b8135612ad681613234565b634e487b7160e01b600052604160045260246000fd5b604051601f8201601f1916810167ffffffffffffffff811182821017156132a2576132a2613263565b604052919050565b6000806000606084860312156132bf57600080fd5b833592506020808501359250604085013567ffffffffffffffff808211156132e657600080fd5b818701915087601f8301126132fa57600080fd5b81358181111561330c5761330c613263565b61331e601f8201601f19168501613279565b9150808252888482850101111561333457600080fd5b80848401858401376000848284010152508093505050509250925092565b60008060006060848603121561336757600080fd5b505081359360208301359350604090920135919050565b805161ffff8116811461319d57600080fd5b8051801515811461319d57600080fd5b600080600080600080600060e0888a0312156133bb57600080fd5b87516133c6816131a2565b8097505060208801518060020b81146133de57600080fd5b95506133ec6040890161337e565b94506133fa6060890161337e565b93506134086080890161337e565b925060a088015161341881613234565b915061342660c08901613390565b905092959891949750929550565b634e487b7160e01b600052601160045260246000fd5b63ffffffff82811682821603908082111561346757613467613434565b5092915050565b8051600681900b811461319d57600080fd5b6000806000806080858703121561349657600080fd5b84516134a181613234565b93506134af6020860161346e565b925060408501516134bf816131a2565b91506134cd60608601613390565b905092959194509250565b61ffff81811683821601908082111561346757613467613434565b61ffff82811682821603908082111561346757613467613434565b634e487b7160e01b600052601260045260246000fd5b600061ffff808416806135395761353961350e565b92169190910692915050565b600682810b9082900b03667fffffffffffff198112667fffffffffffff8213171561357257613572613434565b92915050565b60008160060b8360060b8061358f5761358f61350e565b667fffffffffffff198214600019821416156135ad576135ad613434565b90059392505050565b600282810b9082900b03627fffff198112627fffff8213171561357257613572613434565b60008160020b627fffff1981036135f4576135f4613434565b60000392915050565b600061ffff80831681810361361457613614613434565b6001019392505050565b808202811582820484141761357257613572613434565b6000826136445761364461350e565b500490565b6001600160801b0382811682821603908082111561346757613467613434565b8082018082111561357257613572613434565b8181038181111561357257613572613434565b634e487b7160e01b600052603260045260246000fd5b6020808252825182820181905260009190848201906040850190845b818110156136e357835163ffffffff16835292840192918401916001016136c1565b50909695505050505050565b600067ffffffffffffffff82111561370957613709613263565b5060051b60200190565b600082601f83011261372457600080fd5b81516020613739613734836136ef565b613279565b8083825260208201915060208460051b87010193508684111561375b57600080fd5b602086015b84811015613780578051613773816131a2565b8352918301918301613760565b509695505050505050565b6000806040838503121561379e57600080fd5b825167ffffffffffffffff808211156137b657600080fd5b818501915085601f8301126137ca57600080fd5b815160206137da613734836136ef565b82815260059290921b840181019181810190898411156137f957600080fd5b948201945b8386101561381e5761380f8661346e565b825294820194908201906137fe565b9188015191965090935050508082111561383757600080fd5b5061384485828601613713565b9150509250929050565b60008260060b806138615761386161350e565b808360060b0791505092915050565b60008160020b627fffff19810361388957613889613434565b6000190192915050565b600181815b808511156138ce5781600019048211156138b4576138b4613434565b808516156138c157918102915b93841c9390800290613898565b509250929050565b6000826138e557506001613572565b816138f257506000613572565b816001811461390857600281146139125761392e565b6001915050613572565b60ff84111561392357613923613434565b50506001821b613572565b5060208310610133831016604e8410600b8410161715613951575081810a613572565b61395b8383613893565b806000190482111561396f5761396f613434565b029392505050565b6000612ad660ff8416836138d6565b60006020828403121561399857600080fd5b5051919050565b600062ffffff808416806139b5576139b561350e565b92169190910492915050565b600062ffffff808416806135395761353961350e565b600080604083850312156139ea57600080fd5b505080516020909101519092909150565b6001600160a01b03959095168552600293840b60208601529190920b60408401526001600160801b03918216606084015216608082015260a00190565b80516001600160801b038116811461319d57600080fd5b60008060408385031215613a6257600080fd5b613a6b83613a38565b9150613a7960208401613a38565b90509250929050565b60008260020b80613a9557613a9561350e565b808360020b0791505092915050565b600281810b9083900b01627fffff8113627fffff198212171561357257613572613434565b60008160020b8360020b80613ae057613ae061350e565b627fffff198214600019821416156135ad576135ad613434565b6001600160a01b03949094168452600292830b6020850152910b60408301526001600160801b0316606082015260a060808201819052600490820152631d195cdd60e21b60c082015260e00190565b6001600160801b0381811683821601908082111561346757613467613434565b6001600160a01b038281168282160390808211156134675761346761343456fea264697066735822122039189810d43dcac5ef016b5c73f7329b92114171818e7b1874ff4e9348e04ad164736f6c63430008170033","linkReferences":{}},"methodIdentifiers":{"addVestingPosition(uint256,uint256,uint256)":"e69b5649","balances()":"7bb98a68","changeFeeRecipient(address)":"23604071","changePositionWidth(uint24)":"c958ff64","changeRebalancer(address)":"0918281b","checkPoolActivity()":"463e8b83","collectFees()":"c8796572","compound()":"f69e2046","feeRecipient()":"46904840","getMainPosition()":"357a5f82","getSecondaryPosition()":"4d2c89ff","getVestingPosition()":"8072feb0","idleBalances()":"ab16fd9f","lastRebalance()":"106b9ca1","mainPosition()":"beff053e","maxObservationDeviation()":"5dd08bc0","ongoingVestingPosition()":"9b70de68","owner()":"8da5cb5b","pool()":"16f0115b","positionWidth()":"8097e249","price()":"a035b1fe","protocolFee()":"b0e21e8a","rebalance()":"7d7c2a1c","rebalanceInterval()":"16d1d916","rebalancer()":"01d22ccd","renounceOwnership()":"715018a6","secondaryPosition()":"a3da095e","setMaxObservationDeviation(uint24)":"2246bc69","setProtocolFee(uint256)":"787dce3d","setRebalanceInterval(uint256)":"5b7dcaed","setTickTwapDeviation(uint24)":"11934ef8","setTwap(uint32)":"a7d8483f","tickSpacing()":"d0c93a7c","tickTwapDeviation()":"64e91c7d","token0()":"0dfe1681","token1()":"d21220a7","transferOwnership(address)":"f2fde38b","twap()":"1208aa18","twapPrice()":"a20a41cf","twapTick()":"9f7b1ebc","uniswapV3MintCallback(uint256,uint256,bytes)":"d3487997","vault()":"fbfa77cf","vestPosition()":"aa3ad374","withdrawPartial(uint256,uint256)":"66c91379"},"id":31}