{"abi":[{"type":"constructor","inputs":[{"name":"_token0","type":"address","internalType":"address"},{"name":"_token1","type":"address","internalType":"address"}],"stateMutability":"nonpayable"},{"type":"function","name":"addVestingPosition","inputs":[{"name":"amount0","type":"uint256","internalType":"uint256"},{"name":"amount1","type":"uint256","internalType":"uint256"},{"name":"_duration","type":"uint256","internalType":"uint256"}],"outputs":[],"stateMutability":"nonpayable"},{"type":"function","name":"allowance","inputs":[{"name":"owner","type":"address","internalType":"address"},{"name":"spender","type":"address","internalType":"address"}],"outputs":[{"name":"","type":"uint256","internalType":"uint256"}],"stateMutability":"view"},{"type":"function","name":"approve","inputs":[{"name":"spender","type":"address","internalType":"address"},{"name":"value","type":"uint256","internalType":"uint256"}],"outputs":[{"name":"","type":"bool","internalType":"bool"}],"stateMutability":"nonpayable"},{"type":"function","name":"balanceOf","inputs":[{"name":"account","type":"address","internalType":"address"}],"outputs":[{"name":"","type":"uint256","internalType":"uint256"}],"stateMutability":"view"},{"type":"function","name":"balances","inputs":[],"outputs":[{"name":"bal0","type":"uint256","internalType":"uint256"},{"name":"bal1","type":"uint256","internalType":"uint256"}],"stateMutability":"view"},{"type":"function","name":"checkPoolActivity","inputs":[],"outputs":[{"name":"","type":"bool","internalType":"bool"}],"stateMutability":"nonpayable"},{"type":"function","name":"decimals","inputs":[],"outputs":[{"name":"","type":"uint8","internalType":"uint8"}],"stateMutability":"view"},{"type":"function","name":"deposit","inputs":[{"name":"amount0","type":"uint256","internalType":"uint256"},{"name":"amount1","type":"uint256","internalType":"uint256"},{"name":"amount0Min","type":"uint256","internalType":"uint256"},{"name":"amount1Min","type":"uint256","internalType":"uint256"}],"outputs":[{"name":"shares","type":"uint256","internalType":"uint256"},{"name":"depositAmount0","type":"uint256","internalType":"uint256"},{"name":"depositAmount1","type":"uint256","internalType":"uint256"}],"stateMutability":"nonpayable"},{"type":"function","name":"depositFee","inputs":[],"outputs":[{"name":"","type":"uint256","internalType":"uint256"}],"stateMutability":"view"},{"type":"function","name":"name","inputs":[],"outputs":[{"name":"","type":"string","internalType":"string"}],"stateMutability":"view"},{"type":"function","name":"owner","inputs":[],"outputs":[{"name":"","type":"address","internalType":"address"}],"stateMutability":"view"},{"type":"function","name":"price","inputs":[],"outputs":[{"name":"","type":"uint256","internalType":"uint256"}],"stateMutability":"view"},{"type":"function","name":"renounceOwnership","inputs":[],"outputs":[],"stateMutability":"nonpayable"},{"type":"function","name":"setDepositFee","inputs":[{"name":"_fee","type":"uint256","internalType":"uint256"}],"outputs":[],"stateMutability":"nonpayable"},{"type":"function","name":"setStrategy","inputs":[{"name":"_newstrategy","type":"address","internalType":"address"}],"outputs":[],"stateMutability":"nonpayable"},{"type":"function","name":"strategy","inputs":[],"outputs":[{"name":"","type":"address","internalType":"address"}],"stateMutability":"view"},{"type":"function","name":"symbol","inputs":[],"outputs":[{"name":"","type":"string","internalType":"string"}],"stateMutability":"view"},{"type":"function","name":"token0","inputs":[],"outputs":[{"name":"","type":"address","internalType":"address"}],"stateMutability":"view"},{"type":"function","name":"token1","inputs":[],"outputs":[{"name":"","type":"address","internalType":"address"}],"stateMutability":"view"},{"type":"function","name":"totalSupply","inputs":[],"outputs":[{"name":"","type":"uint256","internalType":"uint256"}],"stateMutability":"view"},{"type":"function","name":"transfer","inputs":[{"name":"to","type":"address","internalType":"address"},{"name":"value","type":"uint256","internalType":"uint256"}],"outputs":[{"name":"","type":"bool","internalType":"bool"}],"stateMutability":"nonpayable"},{"type":"function","name":"transferFrom","inputs":[{"name":"from","type":"address","internalType":"address"},{"name":"to","type":"address","internalType":"address"},{"name":"value","type":"uint256","internalType":"uint256"}],"outputs":[{"name":"","type":"bool","internalType":"bool"}],"stateMutability":"nonpayable"},{"type":"function","name":"transferOwnership","inputs":[{"name":"newOwner","type":"address","internalType":"address"}],"outputs":[],"stateMutability":"nonpayable"},{"type":"function","name":"twapPrice","inputs":[],"outputs":[{"name":"","type":"uint256","internalType":"uint256"}],"stateMutability":"view"},{"type":"function","name":"withdraw","inputs":[{"name":"shares","type":"uint256","internalType":"uint256"},{"name":"minAmount0","type":"uint256","internalType":"uint256"},{"name":"minAmount1","type":"uint256","internalType":"uint256"}],"outputs":[{"name":"withdrawAmount0","type":"uint256","internalType":"uint256"},{"name":"withdrawAmount1","type":"uint256","internalType":"uint256"}],"stateMutability":"nonpayable"},{"type":"event","name":"Approval","inputs":[{"name":"owner","type":"address","indexed":true,"internalType":"address"},{"name":"spender","type":"address","indexed":true,"internalType":"address"},{"name":"value","type":"uint256","indexed":false,"internalType":"uint256"}],"anonymous":false},{"type":"event","name":"OwnershipTransferred","inputs":[{"name":"previousOwner","type":"address","indexed":true,"internalType":"address"},{"name":"newOwner","type":"address","indexed":true,"internalType":"address"}],"anonymous":false},{"type":"event","name":"Transfer","inputs":[{"name":"from","type":"address","indexed":true,"internalType":"address"},{"name":"to","type":"address","indexed":true,"internalType":"address"},{"name":"value","type":"uint256","indexed":false,"internalType":"uint256"}],"anonymous":false},{"type":"error","name":"ERC20InsufficientAllowance","inputs":[{"name":"spender","type":"address","internalType":"address"},{"name":"allowance","type":"uint256","internalType":"uint256"},{"name":"needed","type":"uint256","internalType":"uint256"}]},{"type":"error","name":"ERC20InsufficientBalance","inputs":[{"name":"sender","type":"address","internalType":"address"},{"name":"balance","type":"uint256","internalType":"uint256"},{"name":"needed","type":"uint256","internalType":"uint256"}]},{"type":"error","name":"ERC20InvalidApprover","inputs":[{"name":"approver","type":"address","internalType":"address"}]},{"type":"error","name":"ERC20InvalidReceiver","inputs":[{"name":"receiver","type":"address","internalType":"address"}]},{"type":"error","name":"ERC20InvalidSender","inputs":[{"name":"sender","type":"address","internalType":"address"}]},{"type":"error","name":"ERC20InvalidSpender","inputs":[{"name":"spender","type":"address","internalType":"address"}]},{"type":"error","name":"OwnableInvalidOwner","inputs":[{"name":"owner","type":"address","internalType":"address"}]},{"type":"error","name":"OwnableUnauthorizedAccount","inputs":[{"name":"account","type":"address","internalType":"address"}]},{"type":"error","name":"SafeERC20FailedOperation","inputs":[{"name":"token","type":"address","internalType":"address"}]}],"bytecode":{"object":"0x60806040523480156200001157600080fd5b50604051620019c7380380620019c783398101604081905262000034916200016a565b604080516020808201835260008083528351918201909352918252339160036200005f838262000249565b5060046200006e828262000249565b5050506001600160a01b038116620000a057604051631e4fbdf760e01b81526000600482015260240160405180910390fd5b620000ab81620000fb565b50806001600160a01b0316826001600160a01b03161115620000c957905b600680546001600160a01b039384166001600160a01b0319918216179091556007805492909316911617905562000315565b600580546001600160a01b038381166001600160a01b0319831681179093556040519116919082907f8be0079c531659141344cd1fd0a4f28419497f9722a3daafe3b4186f6b6457e090600090a35050565b80516001600160a01b03811681146200016557600080fd5b919050565b600080604083850312156200017e57600080fd5b62000189836200014d565b915062000199602084016200014d565b90509250929050565b634e487b7160e01b600052604160045260246000fd5b600181811c90821680620001cd57607f821691505b602082108103620001ee57634e487b7160e01b600052602260045260246000fd5b50919050565b601f82111562000244576000816000526020600020601f850160051c810160208610156200021f5750805b601f850160051c820191505b8181101562000240578281556001016200022b565b5050505b505050565b81516001600160401b03811115620002655762000265620001a2565b6200027d81620002768454620001b8565b84620001f4565b602080601f831160018114620002b557600084156200029c5750858301515b600019600386901b1c1916600185901b17855562000240565b600085815260208120601f198616915b82811015620002e657888601518255948401946001909101908401620002c5565b5085821015620003055787850151600019600388901b60f8161c191681555b5050505050600190811b01905550565b6116a280620003256000396000f3fe608060405234801561001057600080fd5b50600436106101735760003560e01c8063715018a6116100de578063a41fe49f11610097578063d21220a711610071578063d21220a71461032f578063dd62ed3e14610342578063e69b56491461037b578063f2fde38b1461038e57600080fd5b8063a41fe49f146102f6578063a8c62e7614610309578063a9059cbb1461031c57600080fd5b8063715018a6146102a85780637bb98a68146102b05780638da5cb5b146102cd57806395d89b41146102de578063a035b1fe146102e6578063a20a41cf146102ee57600080fd5b8063313ce56711610130578063313ce5671461023757806333a100ca14610246578063463e8b831461025b578063490ae2101461026357806367a527931461027657806370a082311461027f57600080fd5b806306fdde0314610178578063095ea7b3146101965780630dfe1681146101b957806318160ddd146101e457806323b872dd146101f65780632505c3d914610209575b600080fd5b6101806103a1565b60405161018d91906113ab565b60405180910390f35b6101a96101a4366004611416565b610433565b604051901515815260200161018d565b6006546101cc906001600160a01b031681565b6040516001600160a01b03909116815260200161018d565b6002545b60405190815260200161018d565b6101a9610204366004611440565b61044d565b61021c61021736600461147c565b610471565b6040805193845260208401929092529082015260600161018d565b6040516012815260200161018d565b6102596102543660046114ae565b6106cb565b005b6101a96107a4565b6102596102713660046114d0565b610818565b6101e860095481565b6101e861028d3660046114ae565b6001600160a01b031660009081526020819052604090205490565b61025961086e565b6102b8610882565b6040805192835260208301919091520161018d565b6005546001600160a01b03166101cc565b6101806108f8565b6101e8610907565b6101e8610975565b6102b86103043660046114e9565b6109bf565b6008546101cc906001600160a01b031681565b6101a961032a366004611416565b610c85565b6007546101cc906001600160a01b031681565b6101e8610350366004611515565b6001600160a01b03918216600090815260016020908152604080832093909416825291909152205490565b6102596103893660046114e9565b610c93565b61025961039c3660046114ae565b610d4a565b6060600380546103b090611548565b80601f01602080910402602001604051908101604052809291908181526020018280546103dc90611548565b80156104295780601f106103fe57610100808354040283529160200191610429565b820191906000526020600020905b81548152906001019060200180831161040c57829003601f168201915b5050505050905090565b600033610441818585610d88565b60019150505b92915050565b60003361045b858285610d9a565b610466858585610e19565b506001949350505050565b6000806000600860009054906101000a90046001600160a01b03166001600160a01b031663c87965726040518163ffffffff1660e01b8152600401600060405180830381600087803b1580156104c657600080fd5b505af11580156104da573d6000803e3d6000fd5b50505050600080600860009054906101000a90046001600160a01b03166001600160a01b0316637bb98a686040518163ffffffff1660e01b81526004016040805180830381865afa158015610533573d6000803e3d6000fd5b505050506040513d601f19601f820116820180604052508101906105579190611582565b9150915061056782828b8b610e78565b600854600654939850919650945061058e916001600160a01b039081169133911687610ff2565b6008546007546105ad916001600160a01b039182169133911686610ff2565b600954156105dd57612710600954866105c691906115bc565b6105d091906115d3565b6105da90866115f5565b94505b600085116106255760405162461bcd60e51b815260206004820152601060248201526f07368617265732063616e7420626520360841b60448201526064015b60405180910390fd5b868410156106615760405162461bcd60e51b81526020600482015260096024820152680736c697070616765360bc1b604482015260640161061c565b8583101561069d5760405162461bcd60e51b8152602060048201526009602482015268736c6970706167653160b81b604482015260640161061c565b6002546000036106b5576106b56105396103e861104c565b6106bf338661104c565b50509450945094915050565b6106d3611086565b6008546001600160a01b03161561072c5760405162461bcd60e51b815260206004820152601760248201527f73747261742063616e7420626520736574207477696365000000000000000000604482015260640161061c565b6001600160a01b0381166107825760405162461bcd60e51b815260206004820152601860248201527f73747261742063616e7420626520616464726573732830290000000000000000604482015260640161061c565b600880546001600160a01b0319166001600160a01b0392909216919091179055565b6008546040805163463e8b8360e01b815290516000926001600160a01b03169163463e8b83916004808301926020929190829003018187875af11580156107ef573d6000803e3d6000fd5b505050506040513d601f19601f820116820180604052508101906108139190611608565b905090565b610820611086565b600a8111156108695760405162461bcd60e51b81526020600482015260156024820152746665652069732063617070656420617420302e312560581b604482015260640161061c565b600955565b610876611086565b61088060006110b3565b565b60085460408051630f77314d60e31b8152815160009384936001600160a01b0390911692637bb98a6892600480830193928290030181865afa1580156108cc573d6000803e3d6000fd5b505050506040513d601f19601f820116820180604052508101906108f09190611582565b915091509091565b6060600480546103b090611548565b6008546040805163501ad8ff60e11b815290516000926001600160a01b03169163a035b1fe9160048083019260209291908290030181865afa158015610951573d6000803e3d6000fd5b505050506040513d601f19601f82011682018060405250810190610813919061162a565b6008546040805163a20a41cf60e01b815290516000926001600160a01b03169163a20a41cf9160048083019260209291908290030181865afa158015610951573d6000803e3d6000fd5b600080600860009054906101000a90046001600160a01b03166001600160a01b031663c87965726040518163ffffffff1660e01b8152600401600060405180830381600087803b158015610a1257600080fd5b505af1158015610a26573d6000803e3d6000fd5b50505050600080600860009054906101000a90046001600160a01b03166001600160a01b0316637bb98a686040518163ffffffff1660e01b81526004016040805180830381865afa158015610a7f573d6000803e3d6000fd5b505050506040513d601f19601f82011682018060405250810190610aa39190611582565b915091506000610ab260025490565b9050610abe3389611105565b80610ac989856115bc565b610ad391906115d3565b945080610ae089846115bc565b610aea91906115d3565b6008546040805163ab16fd9f60e01b8152815193975060009384936001600160a01b03169263ab16fd9f92600480820193918290030181865afa158015610b35573d6000803e3d6000fd5b505050506040513d601f19601f82011682018060405250810190610b599190611582565b9150915086821080610b6a57508581105b15610bea576008546040516366c9137960e01b8152600481018c9052602481018590526001600160a01b03909116906366c913799060440160408051808303816000875af1158015610bc0573d6000803e3d6000fd5b505050506040513d601f19601f82011682018060405250810190610be49190611582565b90975095505b888710158015610bfa5750878610155b610c3c5760405162461bcd60e51b815260206004820152601360248201527239b634b83830b3b290383937ba32b1ba34b7b760691b604482015260640161061c565b600854600654610c5a916001600160a01b039182169116338a610ff2565b600854600754610c78916001600160a01b0391821691163389610ff2565b5050505050935093915050565b600033610441818585610e19565b610c9b611086565b600854600654610cba916001600160a01b039182169133911686610ff2565b600854600754610cd9916001600160a01b039182169133911685610ff2565b60085460405163e69b564960e01b81526004810185905260248101849052604481018390526001600160a01b039091169063e69b564990606401600060405180830381600087803b158015610d2d57600080fd5b505af1158015610d41573d6000803e3d6000fd5b50505050505050565b610d52611086565b6001600160a01b038116610d7c57604051631e4fbdf760e01b81526000600482015260240161061c565b610d85816110b3565b50565b610d95838383600161113b565b505050565b6001600160a01b03838116600090815260016020908152604080832093861683529290522054600019811015610e135781811015610e0457604051637dc7a0d960e11b81526001600160a01b0384166004820152602481018290526044810183905260640161061c565b610e138484848403600061113b565b50505050565b6001600160a01b038316610e4357604051634b637e8f60e11b81526000600482015260240161061c565b6001600160a01b038216610e6d5760405163ec442f0560e01b81526000600482015260240161061c565b610d95838383611210565b600080600080610e8760025490565b9050801580610e965750600088115b80610ea15750600087115b610ead57610ead611643565b80600003610ede578592508491506103e8828411610ecb5782610ecd565b835b610ed791906115f5565b9350610fe7565b87600003610efe5784915086610ef482846115bc565b610ed791906115d3565b86600003610f145785925087610ef482856115bc565b6000610f2088886115bc565b90506000610f2e8a886115bc565b90506000818311610f3f5782610f41565b815b905060008111610f7b5760405162461bcd60e51b815260206004820152600560248201526463726f737360d81b604482015260640161061c565b89610f876001836115f5565b610f9191906115d3565b610f9c906001611659565b95508a610faa6001836115f5565b610fb491906115d3565b610fbf906001611659565b9450898b610fcd86846115bc565b610fd791906115d3565b610fe191906115d3565b96505050505b509450945094915050565b604080516001600160a01b0385811660248301528416604482015260648082018490528251808303909101815260849091019091526020810180516001600160e01b03166323b872dd60e01b179052610e1390859061133a565b6001600160a01b0382166110765760405163ec442f0560e01b81526000600482015260240161061c565b61108260008383611210565b5050565b6005546001600160a01b031633146108805760405163118cdaa760e01b815233600482015260240161061c565b600580546001600160a01b038381166001600160a01b0319831681179093556040519116919082907f8be0079c531659141344cd1fd0a4f28419497f9722a3daafe3b4186f6b6457e090600090a35050565b6001600160a01b03821661112f57604051634b637e8f60e11b81526000600482015260240161061c565b61108282600083611210565b6001600160a01b0384166111655760405163e602df0560e01b81526000600482015260240161061c565b6001600160a01b03831661118f57604051634a1406b160e11b81526000600482015260240161061c565b6001600160a01b0380851660009081526001602090815260408083209387168352929052208290558015610e1357826001600160a01b0316846001600160a01b03167f8c5be1e5ebec7d5bd14f71427d1e84f3dd0314c0f7b2291e5b200ac8c7c3b9258460405161120291815260200190565b60405180910390a350505050565b6001600160a01b03831661123b5780600260008282546112309190611659565b909155506112ad9050565b6001600160a01b0383166000908152602081905260409020548181101561128e5760405163391434e360e21b81526001600160a01b0385166004820152602481018290526044810183905260640161061c565b6001600160a01b03841660009081526020819052604090209082900390555b6001600160a01b0382166112c9576002805482900390556112e8565b6001600160a01b03821660009081526020819052604090208054820190555b816001600160a01b0316836001600160a01b03167fddf252ad1be2c89b69c2b068fc378daa952ba7f163c4a11628f55a4df523b3ef8360405161132d91815260200190565b60405180910390a3505050565b600080602060008451602086016000885af18061135d576040513d6000823e3d81fd5b50506000513d91508115611375578060011415611382565b6001600160a01b0384163b155b15610e1357604051635274afe760e01b81526001600160a01b038516600482015260240161061c565b60006020808352835180602085015260005b818110156113d9578581018301518582016040015282016113bd565b506000604082860101526040601f19601f8301168501019250505092915050565b80356001600160a01b038116811461141157600080fd5b919050565b6000806040838503121561142957600080fd5b611432836113fa565b946020939093013593505050565b60008060006060848603121561145557600080fd5b61145e846113fa565b925061146c602085016113fa565b9150604084013590509250925092565b6000806000806080858703121561149257600080fd5b5050823594602084013594506040840135936060013592509050565b6000602082840312156114c057600080fd5b6114c9826113fa565b9392505050565b6000602082840312156114e257600080fd5b5035919050565b6000806000606084860312156114fe57600080fd5b505081359360208301359350604090920135919050565b6000806040838503121561152857600080fd5b611531836113fa565b915061153f602084016113fa565b90509250929050565b600181811c9082168061155c57607f821691505b60208210810361157c57634e487b7160e01b600052602260045260246000fd5b50919050565b6000806040838503121561159557600080fd5b505080516020909101519092909150565b634e487b7160e01b600052601160045260246000fd5b8082028115828204841417610447576104476115a6565b6000826115f057634e487b7160e01b600052601260045260246000fd5b500490565b81810381811115610447576104476115a6565b60006020828403121561161a57600080fd5b815180151581146114c957600080fd5b60006020828403121561163c57600080fd5b5051919050565b634e487b7160e01b600052600160045260246000fd5b80820180821115610447576104476115a656fea26469706673582212208d7b7adee4703a2480c8c1e5a0c8ac01411df0ee36995abad819986d7488a80064736f6c63430008170033","linkReferences":{}},"methodIdentifiers":{"addVestingPosition(uint256,uint256,uint256)":"e69b5649","allowance(address,address)":"dd62ed3e","approve(address,uint256)":"095ea7b3","balanceOf(address)":"70a08231","balances()":"7bb98a68","checkPoolActivity()":"463e8b83","decimals()":"313ce567","deposit(uint256,uint256,uint256,uint256)":"2505c3d9","depositFee()":"67a52793","name()":"06fdde03","owner()":"8da5cb5b","price()":"a035b1fe","renounceOwnership()":"715018a6","setDepositFee(uint256)":"490ae210","setStrategy(address)":"33a100ca","strategy()":"a8c62e76","symbol()":"95d89b41","token0()":"0dfe1681","token1()":"d21220a7","totalSupply()":"18160ddd","transfer(address,uint256)":"a9059cbb","transferFrom(address,address,uint256)":"23b872dd","transferOwnership(address)":"f2fde38b","twapPrice()":"a20a41cf","withdraw(uint256,uint256,uint256)":"a41fe49f"},"id":32}