{"abi":[{"type":"constructor","inputs":[],"stateMutability":"nonpayable"},{"type":"function","name":"getPrice","inputs":[{"name":"asset","type":"address","internalType":"address"}],"outputs":[{"name":"price","type":"uint256","internalType":"uint256"}],"stateMutability":"view"},{"type":"function","name":"hasPriceFeed","inputs":[{"name":"asset","type":"address","internalType":"address"}],"outputs":[{"name":"","type":"bool","internalType":"bool"}],"stateMutability":"view"},{"type":"function","name":"owner","inputs":[],"outputs":[{"name":"","type":"address","internalType":"address"}],"stateMutability":"view"},{"type":"function","name":"pricefeeds","inputs":[{"name":"","type":"address","internalType":"address"}],"outputs":[{"name":"feedType","type":"uint8","internalType":"enum TypePriceFeed"},{"name":"feed1","type":"address","internalType":"address"},{"name":"feed2","type":"address","internalType":"address"},{"name":"timeInterval","type":"uint256","internalType":"uint256"}],"stateMutability":"view"},{"type":"function","name":"renounceOwnership","inputs":[],"outputs":[],"stateMutability":"nonpayable"},{"type":"function","name":"setChainlinkPriceFeed","inputs":[{"name":"asset","type":"address","internalType":"address"},{"name":"feed","type":"address","internalType":"address"},{"name":"heartbeat","type":"uint256","internalType":"uint256"}],"outputs":[],"stateMutability":"nonpayable"},{"type":"function","name":"transferOwnership","inputs":[{"name":"newOwner","type":"address","internalType":"address"}],"outputs":[],"stateMutability":"nonpayable"},{"type":"event","name":"OwnershipTransferred","inputs":[{"name":"previousOwner","type":"address","indexed":true,"internalType":"address"},{"name":"newOwner","type":"address","indexed":true,"internalType":"address"}],"anonymous":false},{"type":"error","name":"OwnableInvalidOwner","inputs":[{"name":"owner","type":"address","internalType":"address"}]},{"type":"error","name":"OwnableUnauthorizedAccount","inputs":[{"name":"account","type":"address","internalType":"address"}]}],"bytecode":{"object":"0x608060405234801561001057600080fd5b50338061003757604051631e4fbdf760e01b81526000600482015260240160405180910390fd5b61004081610046565b50610096565b600080546001600160a01b038381166001600160a01b0319831681178455604051919092169283917f8be0079c531659141344cd1fd0a4f28419497f9722a3daafe3b4186f6b6457e09190a35050565b6105c2806100a56000396000f3fe608060405234801561001057600080fd5b506004361061007d5760003560e01c80635e35ab6a1161005b5780635e35ab6a14610100578063715018a6146101565780638da5cb5b1461015e578063f2fde38b1461017957600080fd5b80630b7983a2146100825780630e588bb1146100ca57806341976e09146100df575b600080fd5b6100b5610090366004610470565b6001600160a01b03908116600090815260016020526040902054610100900416151590565b60405190151581526020015b60405180910390f35b6100dd6100d836600461048b565b61018c565b005b6100f26100ed366004610470565b61024b565b6040519081526020016100c1565b61014661010e366004610470565b600160208190526000918252604090912080549181015460029091015460ff8316926001600160a01b03610100909104811692169084565b6040516100c194939291906104dd565b6100dd6102fe565b6000546040516001600160a01b0390911681526020016100c1565b6100dd610187366004610470565b610312565b610194610355565b60408051608081018252600081830181905260018083526001600160a01b038681166020808601919091526060850187905290881683528190529290208151815492938493839160ff19909116908360038111156101f4576101f46104c7565b021790555060208201518154610100600160a81b0319166101006001600160a01b039283160217825560408301516001830180546001600160a01b0319169190921617905560609091015160029091015550505050565b6001600160a01b038116600090815260016020526040808220815160808101909252805483929190829060ff166003811115610289576102896104c7565b600381111561029a5761029a6104c7565b815281546001600160a01b03610100909104811660208301526001808401549091166040830152600290920154606090910152909150815160038111156102e3576102e36104c7565b036102f8576102f181610382565b9392505050565b50919050565b610306610355565b6103106000610404565b565b61031a610355565b6001600160a01b03811661034957604051631e4fbdf760e01b8152600060048201526024015b60405180910390fd5b61035281610404565b50565b6000546001600160a01b031633146103105760405163118cdaa760e01b8152336004820152602401610340565b60008082602001516001600160a01b031663feaf968c6040518163ffffffff1660e01b815260040160a060405180830381865afa1580156103c7573d6000803e3d6000fd5b505050506040513d601f19601f820116820180604052508101906103eb919061053c565b505050915050600081136103fe57600080fd5b92915050565b600080546001600160a01b038381166001600160a01b0319831681178455604051919092169283917f8be0079c531659141344cd1fd0a4f28419497f9722a3daafe3b4186f6b6457e09190a35050565b80356001600160a01b038116811461046b57600080fd5b919050565b60006020828403121561048257600080fd5b6102f182610454565b6000806000606084860312156104a057600080fd5b6104a984610454565b92506104b760208501610454565b9150604084013590509250925092565b634e487b7160e01b600052602160045260246000fd5b60808101600486106104ff57634e487b7160e01b600052602160045260246000fd5b9481526001600160a01b0393841660208201529190921660408201526060015290565b805169ffffffffffffffffffff8116811461046b57600080fd5b600080600080600060a0868803121561055457600080fd5b61055d86610522565b945060208601519350604086015192506060860151915061058060808701610522565b9050929550929590935056fea2646970667358221220f1a7488430756ae8b59abada8c0250b4396c74437aa9977de27ed6f2e271b8f064736f6c63430008170033","linkReferences":{}},"methodIdentifiers":{"getPrice(address)":"41976e09","hasPriceFeed(address)":"0b7983a2","owner()":"8da5cb5b","pricefeeds(address)":"5e35ab6a","renounceOwnership()":"715018a6","setChainlinkPriceFeed(address,address,uint256)":"0e588bb1","transferOwnership(address)":"f2fde38b"},"id":30}